:020000040000FA
:04000000E6EF0EF029
:10060000003F065B4F666D7D077F6F777C395E79B3
:100610007100554C445253584142597350524553FE
:1006200053204B455920544F20434C4F53450041D4
:100630006363657373204772616E74656400546F01
:100640006F206D616E792074726965730041636318
:100650006573732044656E696564004558504C4F5E
:1006600044494E472E2E2E00436F6E6669677572A1
:10067000653A0050617373776F72643A00424F4F6E
:050680004D21210000E6
:1006860020BE51EF03F0205007E1080E1F5CD8B0E2
:100696004FEF03F051EF03F07BEF03F021502210F0
:1006A600D8B458EF03F05AEF03F06AEF03F01FC017
:1006B60023F0010E246E232A63EF03F0D89024362C
:1006C600232E61EF03F02450921269EF04F01FC04D
:1006D60023F0010E246E232A73EF03F0D8902436FC
:1006E600232E71EF03F02450FF0A921669EF04F0EF
:1006F60020BE89EF03F0205007E1100E1F5CD8B032
:1007060087EF03F089EF03F0B7EF03F021502210D3
:10071600D8B490EF03F092EF03F0A4EF03F01FC0FC
:1007260023F0F80E2326010E246E232A9DEF03F0F4
:10073600D8902436232E9BEF03F02450931269EFB2
:1007460004F01FC023F0F80E2326010E246E232A80
:10075600AFEF03F0D8902436232EADEF03F02450EC
:10076600FF0A931669EF04F020BEC5EF03F0205090
:1007760007E1180E1F5CD8B0C3EF03F0C5EF03F016
:10078600F3EF03F021502210D8B4CCEF03F0CEEFF4
:1007960003F0E0EF03F01FC023F0F00E2326010E56
:1007A600246E232AD9EF03F0D8902436232ED7EFD0
:1007B60003F02450941269EF04F01FC023F0F00EEA
:1007C6002326010E246E232AEBEF03F0D89024365D
:1007D600232EE9EF03F02450FF0A941669EF04F084
:1007E60020BE01EF04F0205007E1200E1F5CD8B0B8
:1007F600FFEF03F001EF04F02FEF04F02150221079
:10080600D8B408EF04F00AEF04F01CEF04F01FC0A0
:1008160023F0E80E2326010E246E232A15EF04F09A
:10082600D8902436232E13EF04F02450951269EF46
:1008360004F01FC023F0E80E2326010E246E232A9F
:1008460027EF04F0D8902436232E25EF04F0245009
:10085600FF0A951669EF04F020BE3DEF04F0205024
:1008660007E1280E1F5CD8B03BEF04F03DEF04F023
:1008760069EF04F021502210D8B444EF04F046EF9B
:1008860004F058EF04F01FC023F0E00E2326010EFB
:10089600246E232A51EF04F0D8902436232E4FEFEE
:1008A60004F02450961269EF04F01FC023F0E00E06
:1008B6002326010E246E232A63EF04F0D8902436F3
:1008C600232E61EF04F02450FF0A9616120020BE74
:1008D60078EF04F0205007E1080E1F5CD8B076EFE1
:1008E60004F078EF04F0A2EF04F021502210D8B4FF
:1008F6007FEF04F081EF04F091EF04F01FC023F0C6
:10090600010E246E232A8AEF04F0D8902436232E73
:1009160088EF04F02450801290EF05F01FC023F0FA
:10092600010E246E232A9AEF04F0D8902436232E43
:1009360098EF04F02450FF0A801690EF05F020BED1
:10094600B0EF04F0205007E1100E1F5CD8B0AEEFF8
:1009560004F0B0EF04F0DEEF04F0F80E1F26FF0EF1
:10096600202221502210D8B4BBEF04F0BDEF04F0D2
:10097600CDEF04F01FC023F0010E246E232AC6EF2C
:1009860004F0D8902436232EC4EF04F024508112AC
:1009960090EF05F01FC023F0010E246E232AD6EF38
:1009A60004F0D8902436232ED4EF04F02450FF0A06
:1009B600811690EF05F020BEECEF04F0205007E121
:1009C600180E1F5CD8B0EAEF04F0ECEF04F01AEF53
:1009D60005F0F00E1F26FF0E202221502210D8B45B
:1009E600F7EF04F0F9EF04F009EF05F01FC023F06C
:1009F600010E246E232A02EF05F0D8902436232E0A
:100A060000EF05F02450821290EF05F01FC023F08E
:100A1600010E246E232A12EF05F0D8902436232ED9
:100A260010EF05F02450FF0A821690EF05F020BE65
:100A360028EF05F0205007E1200E1F5CD8B026EF06
:100A460005F028EF05F056EF05F0E80E1F26FF0E1D
:100A5600202221502210D8B433EF05F035EF05F0EF
:100A660045EF05F01FC023F0010E246E232A3EEF4A
:100A760005F0D8902436232E3CEF05F0245083123F
:100A860090EF05F01FC023F0010E246E232A4EEFCF
:100A960005F0D8902436232E4CEF05F02450FF0A9B
:100AA600831690EF05F020BE64EF05F0205007E1B5
:100AB600280E1F5CD8B062EF05F064EF05F090EFEA
:100AC60005F0E00E1F26FF0E202221502210D8B47A
:100AD6006FEF05F071EF05F081EF05F01FC023F011
:100AE600010E246E232A7AEF05F0D8902436232EA1
:100AF60078EF05F02450841290EF05F01FC023F024
:100B0600010E246E232A8AEF05F0D8902436232E70
:100B160088EF05F02450FF0A84161200030E346E87
:100B2600E80E336E020E17649BEF05F09DEF05F09D
:100B360067EF06F0010ECAEC0EF03E0E2D6E060EA5
:100B46002E6E65EC0DF0030E206EE80E1F6EAFECF8
:100B56000CF0010ECAEC0EF05B0E2D6E060E2E6E1C
:100B660065EC0DF02DEF06F03506D8A036063550AB
:100B76003610D8A4C1EF05F0C3EF05F0CBEF05F0B2
:100B8600640E335E000E345A000E366E3C0E356E21
:100B9600000E2D6E030E226EE80E216E33C01FF07E
:100BA60034C020F0A5EC0BF01FC026F020C027F0C3
:100BB600000E296E0A0E286E7DEC0CF026500EEC07
:100BC6000DF0010E2D6E000E226E640E216E33C0E6
:100BD6001FF034C020F0A5EC0BF01FC026F020C09B
:100BE60027F0000E296E0A0E286E7DEC0CF02650BA
:100BF6000EEC0DF0020E2D6E000E226E0A0E216E08
:100C060035C01FF036C020F00BEC0AF01FC027F0ED
:100C160020C028F0000E2A6E0A0E296EC7EC0AF0D4
:100C260027500EEC0DF0030E2D6E35C027F036C0A2
:100C360028F0000E2A6E0A0E296EC7EC0AF027501D
:100C46000EEC0DF068EC06F0000E206E140E1F6E12
:100C5600AFEC0CF033503410D8A434EF06F036EF76
:100C660006F0B7EF05F0010ECAEC0EF07D0E2D6E04
:100C7600060E2E6E65EC0DF08368010E2E6E2C0EA0
:100C86002D6E97EC0EF0000E2D6E0D0E0EEC0DF087
:100C9600010E2D6E010E0EEC0DF0020E2D6E0E0ED7
:100CA6000EEC0DF0030E2D6E0D0E0EEC0DF068EC35
:100CB60006F0000E206E140E1F6EAFEC0CF0640EE4
:100CC600DFEC0BF046EF06F01200000E206E180E59
:100CD6001F6E000E226E000E216E6AEC04F0000EEE
:100CE600206E190E1F6E000E226E000E216E6AEC2B
:100CF60004F0000E206E1A0E1F6E000E226E000EFD
:100D0600216E6AEC04F0000E206E1B0E1F6E000EA4
:100D1600226E000E216E6AEC04F0000E266E000EA6
:100D2600256E90EC0DF000EF07F0010E1B24F66E19
:100D3600F76A060EF7220800F550256E266A90EC33
:100D46000DF0000E206E180E1F6E000E226E010EA4
:100D5600216E6AEC04F0010E1C6E1DEF07F0010E09
:100D66001A24F66EF76A060EF7220800F550256E6D
:100D7600266A90EC0DF0000E206E190E1F6E000E06
:100D8600226E010E216E6AEC04F0020E1C6E1DEF3F
:100D960007F0010E1924F66EF76A060EF722080010
:100DA600F550256E266A90EC0DF0000E206E1A0E98
:100DB6001F6E000E226E010E216E6AEC04F0030E09
:100DC6001C6E1DEF07F0010E1824F66EF76A060E6C
:100DD600F7220800F550256E266A90EC0DF0000EFD
:100DE600206E1B0E1F6E000E226E010E216E6AEC27
:100DF60004F0000E1C6E1DEF07F01C50286E296AC9
:100E06002950000AD8B40AEF07F0FCEF06F0285084
:100E1600000AD8B498EF06F0010AD8B4B2EF06F08B
:100E2600030AD8B4CCEF06F0010AD8B4E6EF06F010
:100E3600FCEF06F0120020BE2CEF07F0205007E171
:100E4600080E1F5CD8B02AEF07F02CEF07F040EF32
:100E560007F01FC021F0010E226E212A35EF07F0A0
:100E6600D8902236212E33EF07F022508014236EBD
:100E760023501F6E206AD2EF07F020BE4EEF07F018
:100E8600205007E1100E1F5CD8B04CEF07F04EEF74
:100E960007F064EF07F01FC021F0F80E2126010EBF
:100EA600226E212A59EF07F0D8902236212E57EFCD
:100EB60007F022508114236E23501F6E206AD2EF52
:100EC60007F020BE72EF07F0205007E1180E1F5CF6
:100ED600D8B070EF07F072EF07F088EF07F01FC089
:100EE60021F0F00E2126010E226E212A7DEF07F059
:100EF600D8902236212E7BEF07F022508214236EE3
:100F060023501F6E206AD2EF07F020BE96EF07F03F
:100F1600205007E1200E1F5CD8B094EF07F096EF43
:100F260007F0ACEF07F01FC021F0E80E2126010EF6
:100F3600226E212AA1EF07F0D8902236212E9FEFAC
:100F460007F022508314236E23501F6E206AD2EFBF
:100F560007F020BEBAEF07F0205007E1280E1F5C0D
:100F6600D8B0B8EF07F0BAEF07F0D0EF07F01FC020
:100F760021F0E00E2126010E226E212AC5EF07F090
:100F8600D8902236212EC3EF07F022508414236E08
:100F960023501F6E206AD2EF07F01F6820681200E8
:100FA600000E396E000E366E000E356E010ECAEC5E
:100FB6000EF0730E2D6E060E2E6E65EC0DF0C00E45
:100FC600CAEC0EF0000E386E010E376E31EF08F0E7
:100FD60081EC08F069EC0BF00009D8B4F5EF07F0E6
:100FE600F7EF07F031EF08F0F9EC0EF035501F1867
:100FF60009E136502018D8B403EF08F005EF08F0E1
:1010060031EF08F0F9EC0EF01FC035F020C036F0D5
:10101600010E3924D96EDA6A000EDA2269EC0BF079
:10102600DF6E2A0EBBEC0EF0090E3924D96EDA6A91
:10103600000EDA22010E3924E16EE26A000EE22287
:10104600DE50E618D8B42AEF08F02CEF08F030EF9F
:1010560008F0000E386E000E376E392A070E396416
:1010660037EF08F039EF08F0EBEF07F0030E206ECC
:10107600E80E1F6EAFEC0CF0010ECAEC0EF0375006
:101086003810D8B449EF08F04BEF08F067EF08F0D6
:101096002F0E2D6E060E2E6E65EC0DF0000E176EE1
:1010A600000E266E020E256E15EC0CF0270E206E35
:1010B600100E1F6EAFEC0CF0000E266E020E256EA3
:1010C60049EC0CF080EF08F04D0E2D6E060E2E6EDC
:1010D60065EC0DF0172A000E266E010E256E15EC36
:1010E6000CF00B0E206EB80E1F6EAFEC0CF0000E5F
:1010F600266E010E256E49EC0CF01200000E146EE1
:10110600000E136E000E2C6E000E2B6E2CBE95EF8D
:1011160008F02C5009E1050E2B5CD8A095EF08F0DD
:1011260097EF08F099EF08F0FAEF08F02BC028F0D7
:10113600030E2826010E296E000E2A6E282AA7EF16
:1011460008F0D89029362A36282EA4EF08F029C0B0
:1011560025F02AC026F090EC0DF0000E206E0A0E47
:101166001F6E1EEC07F01F502010D8B4BDEF08F01C
:10117600BFEF08F0D2EF08F02BC028F0010E296E61
:10118600000E2A6E282ACBEF08F0D89029362A3688
:10119600282EC8EF08F0295013122A501412000EF8
:1011A600206E090E1F6E1EEC07F01F502010D8B4DB
:1011B600DFEF08F0E1EF08F0F6EF08F02BC028F0BB
:1011C600050E2826010E296E000E2A6E282AEFEF3C
:1011D60008F0D89029362A36282EECEF08F0295048
:1011E60013122A5014122B4A2C2A89EF08F0135096
:1011F600111807E114501218D8A404EF09F006EFED
:1012060009F009EF09F01D060FEF09F0010E1D6E3A
:1012160013C011F014C012F01D50D8A415EF09F038
:1012260017EF09F01BEF09F011C015F012C016F008
:101236001200000E286E26BE25EF09F023EF09F0F6
:101246002FEF09F0261E251E241E236C000E2422D5
:1012560025222622010E286E22BE36EF09F034EF33
:1012660009F040EF09F0221E211E201E1F6C000E01
:10127600202221222222010E281A000E296E000E9B
:101286002A6E000E2B6E000E2C6E23502410251095
:101296002610D8B451EF09F053EF09F089EF09F0A1
:1012A600010E276E5DEF09F0D890233624362536D9
:1012B6002636272A26AE62EF09F064EF09F057EFCB
:1012C60009F0D89029362A362B362C3623501F5C47
:1012D600245020582550215826502258D8A076EF61
:1012E60009F078EF09F081EF09F023501F5E2450D2
:1012F600205A2550215A2650225A2980D890263223
:10130600253224322332272E64EF09F02850D8B430
:101316008FEF09F091EF09F099EF09F02C1E2B1EC3
:101326002A1E296C000E2A222B222C2229C01FF0ED
:101336002AC020F02BC021F02CC022F012006DEC48
:101346000AF016EC0EF03AEC0DF0FEEC0EF0D8ECCE
:101356000DF0D9EC0EF0000E956E800ECAEC0EF074
:10136600680E2D6E060E2E6E65EC0DF0C00ECAECE4
:101376000EF01FEC0BF0130E206E880E1F6EAAECFB
:101386000EF068EC06F0EAEF09F081EC08F0010EC9
:101396003C6E03EF0AF0D3EC07F0020E3C6E03EF4F
:1013A6000AF0000E266E010E256E49EC0CF0000EBA
:1013B600266E020E256E49EC0CF0000E266E030E0C
:1013C600256E49EC0CF0000E3C6E03EF0AF03C5023
:1013D6003A6E3B6A3B50000AD8B4F4EF09F0E6EFE8
:1013E60009F03A50000AD8B4C8EF09F0010AD8B497
:1013F600CEEF09F0030AD8B4D4EF09F0E6EF09F00E
:10140600F1EC0EF091EC05F0BEEF09F000EF00F004
:10141600000E246E22BE14EF0AF012EF0AF01AEF45
:101426000AF0216C221ED8B0222A010E246E20BE9C
:1014360021EF0AF01FEF0AF027EF0AF01F6C201EBB
:10144600D8B0202A010E241A000E266E000E256E34
:1014560021502210D8B432EF0AF034EF0AF05CEFD4
:101466000AF0010E236E3CEF0AF0D89021362236A0
:10147600232A22AE41EF0AF043EF0AF038EF0AF0D2
:10148600D8902536263621501F5C22502058D8A0E9
:101496004FEF0AF051EF0AF056EF0AF021501F5EA7
:1014A6002250205A2580D89022322132232E43EF13
:1014B6000AF02450D8B462EF0AF064EF0AF068EF3D
:1014C6000AF0256C261ED8B0262A25C01FF026C095
:1014D60020F01200000E206E1C0E1F6E000E226EF3
:1014E600000E216E43EC03F0000E206E1D0E1F6EE3
:1014F600000E226E000E216E43EC03F0F7EC0DF0A9
:10150600000E206E0F0E1F6E2FEC0EF0000E296ED1
:10151600000E286E030E71EC0EF0000E206E050E06
:101526001F6E2FEC0EF0000E296E000E286E030EB5
:1015360071EC0EF0000E206EA00E1F6E02EC0FF086
:10154600000E296E000E286E030E71EC0EF0000ED2
:10155600206EA00E1F6E02EC0FF0000E296E000E1C
:10156600286E020E71EC0EF0000E206E0A0E1F6E33
:101576002FEC0EF0280ECAEC0EF00C0ECAEC0EF094
:10158600010ECAEC0EF01200000E2C6E28BED0EF33
:101596000AF0CEEF0AF0D6EF0AF0276C281ED8B074
:1015A600282A010E2C6E2ABEDDEF0AF0DBEF0AF0C8
:1015B600E1EF0AF0296C2A1ED8B02A2A29502A10EF
:1015C600D8B4E8EF0AF0EAEF0AF00EEF0BF0010EDE
:1015D6002B6EF2EF0AF0D89029362A362B2A2AAE3D
:1015E600F7EF0AF0F9EF0AF0EEEF0AF02950275C60
:1015F6002A502858D8A002EF0BF004EF0BF008EFA2
:101606000BF02950275E2A50285AD8902A322932C0
:101616002B2EF9EF0AF02C50D8B414EF0BF016EF7E
:101626000BF01AEF0BF0276C281ED8B0282A27C01B
:1016360027F028C028F01200000E2F6E000E2E6E26
:10164600000E2D6EC00ECAEC0EF057EF0BF081ECBB
:1016560008F069EC0BF00009D8B434EF0BF036EF64
:101666000BF057EF0BF0F9EC0EF02D501F1809E1B7
:101676002E502018D8B442EF0BF044EF0BF057EF82
:101686000BF0F9EC0EF01FC02DF020C02EF0090E65
:101696002F24D96EDA6A000EDA2269EC0BF0DF6EBF
:1016A6002A0EBBEC0EF02F2A070E2F645DEF0BF00F
:1016B6005FEF0BF02AEF0BF0030E206EE80E1F6EA5
:1016C600AFEC0CF0010ECAEC0EF01200000E236E09
:1016D600000E226E22C01FF0010E206E000E216E3B
:1016E6001F2A79EF0BF0D890203621361F2E76EF81
:1016F6000BF0155020161650211620502110D8B484
:1017060087EF0BF089EF0BF093EF0BF0120E22240C
:10171600F66E060E2320F76E0800F550A4EF0BF0C8
:10172600224A232A23BEA1EF0BF0235009E10A0E19
:10173600225CD8A0A1EF0BF0A3EF0BF06DEF0BF03E
:10174600000E1200000E246E000E236E2150221091
:10175600D8B4B0EF0BF0B2EF0BF0DAEF0BF0010EEE
:10176600256EBAEF0BF0D89021362236252A22AE06
:10177600BFEF0BF0C1EF0BF0B6EF0BF0D8902336AE
:10178600243621501F5C22502058D8A0CDEF0BF0F4
:10179600CFEF0BF0D4EF0BF021501F5E2250205AF2
:1017A6002380D89022322132252EC1EF0BF023C0A0
:1017B6001FF024C020F01200286E010ECB241F6EED
:1017C600206A000E202228C021F0226A84EC0EF046
:1017D6001FC029F020C02AF029C01FF02AC020F01F
:1017E600000E226E190E216EA5EC0BF01FC029F01B
:1017F60020C02AF0FF0E2916030E2A1629C026F04D
:101806002AC027F0D89027322632D890273226329F
:101816002650BB6E29C026F0030E26162638F00B7E
:10182600BA12120025A01AEF0CF01CEF0CF026EFEE
:101836000CF0000E206E180E1F6E000E226E010EAA
:10184600216E6AEC04F025A22BEF0CF02DEF0CF0C4
:1018560037EF0CF0000E206E190E1F6E000E226E72
:10186600010E216E6AEC04F025A43CEF0CF03EEF6D
:101876000CF048EF0CF0000E206E1A0E1F6E000ED4
:10188600226E010E216E6AEC04F0120025A04EEFC6
:101896000CF050EF0CF05AEF0CF0000E206E180E04
:1018A6001F6E000E226E000E216E6AEC04F025A259
:1018B6005FEF0CF061EF0CF06BEF0CF0000E206E9A
:1018C600190E1F6E000E226E000E216E6AEC04F0D9
:1018D60025A470EF0CF072EF0CF07CEF0CF0000E0C
:1018E600206E1A0E1F6E000E226E000E216E6AEC1E
:1018F60004F0120028502910D8B484EF0CF086EFBB
:101906000CF0AAEF0CF0010E2A6E8EEF0CF0D890B8
:10191600283629362A2A29AE93EF0CF095EF0CF0DB
:101926008AEF0CF02850265C29502758D8A09EEF45
:101936000CF0A0EF0CF0A4EF0CF02850265E295016
:10194600275AD890293228322A2E95EF0CF026C035
:1019560026F027C027F01200000E226E000E216E20
:10196600D5EF0CF0000E236E280E2364BDEF0CF0AD
:10197600BFEF0CF0C1EF0CF0D3EF0CF0000E246EAD
:10198600020E2464C9EF0CF0CBEF0CF0CDEF0CF097
:10199600D0EF0CF0242AC3EF0CF0232AB7EF0CF09B
:1019A600214A222A1F50215C20502258D8A0DEEF5F
:1019B6000CF0E0EF0CF0B5EF0CF012002B6E2BC024
:1019C6002AF02A3A0F0E2A162A50256E266A90EC1D
:1019D6000DF0000E206E1D0E1F6E28C021F029C0CE
:1019E60022F06AEC04F0B7EC0DF02BC02AF00F0ED3
:1019F6002A162A50256E266A90EC0DF0000E206EEF
:101A06001D0E1F6E28C021F029C022F06AEC04F0DA
:101A1600B7EC0DF012002E6E2D50D8A415EF0DF078
:101A260017EF0DF019EF0DF02EC01BF02D04D8A402
:101A36001FEF0DF021EF0DF023EF0DF02EC01AF081
:101A4600020E2D18D8A42AEF0DF02CEF0DF02EEF74
:101A56000DF02EC019F0030E2D18D8A435EF0DF099
:101A660037EF0DF039EF0DF02EC018F01200000E12
:101A7600206E180E1F6E000E226E000E216E43ECB5
:101A860003F0000E206E190E1F6E000E226E000E61
:101A9600216E43EC03F0000E206E1A0E1F6E000E30
:101AA600226E000E216E43EC03F0000E206E1B0E1C
:101AB6001F6E000E226E000E216E43EC03F0F7EC53
:101AC6000DF01200000E326E000E316E7BEF0DF03F
:101AD60031502D242F6E32502E20306E2FC0F6FF3F
:101AE60030C0F7FF0800F550BBEC0EF0314A322A41
:101AF60031502D242F6E32502E20306E2FC0F6FF1F
:101B060030C0F7FF0800F5500009D8A48DEF0DF09E
:101B16008FEF0DF06BEF0DF01200000E206E080E29
:101B26001F6E000E226E000E216E6AEC04F0000E8F
:101B3600276E000E206E1E0E1F6E800E2514216E5F
:101B4600226A6AEC04F05CEC0EF0D8902536263654
:101B5600272A070E2764B2EF0DF0B4EF0DF09CEFC5
:101B66000DF047EC0EF01200000E206E1C0E1F6EDC
:101B7600000E226E010E216E6AEC04F0000E206E3D
:101B8600050E1F6E02EC0FF0000E206E1C0E1F6E6F
:101B9600000E226E000E216E6AEC04F0000E206E1E
:101BA600050E1F6E02EC0FF01200000E206E180ECE
:101BB6001F6E000E226E000E216E43EC03F0000E27
:101BC600206E190E1F6E000E226E000E216E43EC63
:101BD60003F0000E206E1A0E1F6E000E226E000E0F
:101BE600216E43EC03F01200000E206E1F0E1F6ED6
:101BF600000E226E000E216E43EC03F0000E206EE6
:101C0600080E1F6E000E226E000E216E43EC03F0CE
:101C1600000E206E1E0E1F6E000E226E000E216E2E
:101C260043EC03F01200F7EC0DF0000E206E0A0EE6
:101C36001F6E000E226E010E216E43EC03F0000EA5
:101C4600206E090E1F6E000E226E010E216E43ECF1
:101C560003F00C0EC16E1200000E236E000E226EF3
:101C660037EF0EF0224A232A1F50225C2350800AA7
:101C7600216E2050800A2158D8A044EF0EF046EF7E
:101C86000EF035EF0EF01200000E206E1F0E1F6EC6
:101C9600000E226E010E216E6AEC04F0000E206E1C
:101CA6001F0E1F6E000E226E000E216E6AEC04F0EF
:101CB6001200000E206E080E1F6E000E226E010E20
:101CC600216E6AEC04F0000E206E080E1F6E000EE8
:101CD600226E000E216E6AEC04F012002A6E2AC0F3
:101CE60025F0266A90EC0DF0000E206E1D0E1F6E7C
:101CF60028C021F029C022F06AEC04F0B7EC0DF000
:101D060012001F502102F3CF23F0F4CF24F01F500E
:101D16002202F350242620502102F350242623C009
:101D26001FF024C020F01200480E1F6EE80E206E31
:101D3600010E216E000E226E2DC023F02EC024F05F
:101D4600256A266A1CEC09F01F04CB6E1200D89097
:101D56001F34216E2034226E211E221E320E215E79
:101D6600000E225A2250D76E21C0D6FFF2941200DE
:101D76002C6E000E296E010E286E2C50E1EC0CF034
:101D8600000E206E500E1F6E02EC0FF012002C6E2D
:101D9600000E296E000E286E2C50E1EC0CF0000EA1
:101DA600206E020E1F6E2FEC0EF012009492030EA0
:101DB600CA12CA840C0EBA6E000E2E6E640E2D6EFA
:101DC60097EC0EF0120000EE01F01E0EEE6AE80629
:101DD600FDE1000EF86E0001A2EF09F0F2A4F6EFA5
:101DE6000EF0F8EF0EF0F1EF0EF0120015C01FF036
:101DF60016C020F01200080ED56ED58E1200120005
:020000040020DA
:08000000FFFFFFFFFFFFFFFF00
:020000040030CA
:0E000000FF027100FF8380FF0FC00FE00F4072
:00000001FF
